S018000073656174646F6F72746F6765746865722E7372656349
S113000012C02CC02BC02AC029C028C027C026C0BB
S113001025C024C023C022C021C020C01FC01EC0D0
S11300201DC01CC01BC011241FBECFE5D4E0DEBF21
S1130030CDBF11E0A0E6B0E0E2EEF3E002C005902F
S11300400D92AE34B107D9F721E0AEE4B1E001C0BE
S11300501D92AC35B207E1F71FD0C1C1D1CF87E8FB
S113006086B980EC87B908955D9BFECF8CB908955D
S1130070CF93DF93EC018991882311F0F5DFFBCF57
S1130080DF91CF9108958CE089B98AB188618AB9EA
S113009080B5866880BD0895CF93DF93CDB7DEB772
S11300A02A970FB6F894DEBF0FBECDBFD8DFEBDFC3
S11300B017BA80E690E0DCDF2FE78FE492E121506D
S11300C080409040E1F700C0000085E690E0D0DF7A
S11300D02FE782EA99E1215080409040E1F700C087
S11300E0000083E790E0C4DF2FEF8EE994E2215013
S11300F080409040E1F700C0000081E890E0B8DF64
S11301002FEF8DE399E4215080409040E1F700C047
S11301100000C12CD12CE12CF12C8E010F5F1F4F5C
S1130120369A349BFECF84B195B190935901809354
S1130130580118BA80915801909159018B35910555
S11301407CF5CD2809F05EC043E0C42ED12C85E9AE
S113015090E08EDF2FEF8DE399E4215080409040B2
S1130160E1F700C000008FEB90E082DF2FE78CEF17
S11301709AE0215080409040E1F700C0000081EDFA
S113018090E076DF2FEF8EE994E22150804090409A
S1130190E1F700C0000021E0C21AD108C1F632C064
S11301A0CA94CD2819F0C12CD12C2FC033E0C32E12
S11301B0D12C85E990E05CDF9FEF2DE389E4915039
S11301C020408040E1F700C000008FEB90E050DF5A
S11301D09FE72CEF8AE0915020408040E1F700C077
S11301E0000087EF90E044DF9FEF2EE984E2915016
S11301F020408040E1F700C0000091E0C91AD10816
S1130200C1F6D1CFCC24C394D12CB09B59C0B19B9F
S1130210FECF2FEFE21AF20A4AE0B801C701ACD0D0
S1130220F80101900020E9F7CF01801B910B839620
S113023090935B0180935A014AE06EE471E09CD094
S113024093E0A92EB12C85E990E012DF8FEF9DE3B6
S113025029E4815090402040E1F700C000008DE186
S113026091E006DF8EE491E003DF8CEB90E000DFA9
S11302708FE79CEF2AE0815090402040E1F700C0D6
S113028000008BE291E0F4DEC801F2DE8CEB90E03A
S1130290EFDE8FEF9EE924E2815090402040E1F7A9
S11302A000C0000081E0A81AB10869F69FE72FE4B6
S11302B082E1915020408040E1F700C0000018BA6C
S11302C0B19B2ECFB09BFECF91E0E91AF1084AE032
S11302D0B801C70151D0F80101900020E9F7CF011E
S11302E0801B910B839690935B0180935A014AE0A3
S11302F06EE471E041D083E0A82EB12C85E990E052
S1130300B7DE2FEF8DE399E4215080409040E1F770
S113031000C000008DE191E0ABDE8EE491E0A8DE48
S11303208CEB90E0A5DE2FE78CEF9AE02150804023
S11303309040E1F700C000008BE291E099DEC80133
S113034097DE8CEB90E094DE2FEF8EE994E221505F
S113035080409040E1F700C0000021E0A21AB108FB
S113036069F68FE79FE422E1815090402040E1F755
S113037000C0000018BAD4CEBB274A3031F4992308
S113038022F4BDE2909581959F4F01C0BB27FB01EC
S11303905527AA27880F991FAA1FA41710F0A41B7A
S11303A083955051B9F7A05DAA3308F0A95DA193D4
S11303B0009779F7B111B1931192CB0100C0DC0120
S11303C0FC01672F71917723E1F7329704C07C9188
S11303D06D9370836291AE17BF07C8F30895F894C4
S10503E0FFCF49
S11303E241540D0A0041542B43574D4F44453D336C
S11303F20D0A0041542B4349504D55583D310D0AC5
S11304020041542B4349505345525645523D312CD9
S113041238300D0A0041542B43495053544152542D
S11304223D342C22544350222C223139322E31367F
S1130432382E34332E313939222C38300D0A00410A
S1130442542B43495053454E443D342C33370D0A03
S113045200474554202F74657374696E672F777251
S113046269746553656174312E7068703F73656198
S113047274313D310D0A00474554202F746573745D
S1130482696E672F777269746553656174312E7072
S113049268703F73656174313D300D0A0041542B1D
S11304A243495053454E443D342C00474554202F74
S11304B274657374696E672F7772697465446F6FBC
S11104C272312E7068703F646F6F72313D00AE
S9030000FC
