S01B000041544D45474131365F47454E4552414B6174742E737265634E
S11300000C942A000C9447000C9447000C9447006D
S11300100C9447000C9447000C9447000C94470040
S11300200C9447000C9447000C9447000C94470030
S11300300C9447000C9447000C9447000C94470020
S11300400C9447000C9447000C9447000C94470010
S11300500C94470011241FBECFE5D4E0DEBFCDBF12
S113006011E0A0E6B0E0E0EFF4E002C005900D92EC
S1130070A034B107D9F721E0A0E4B1E001C01D929A
S1130080AE34B207E1F70E949C000C9476020C9403
S113009000002AB128612AB920B5266820BD9B0139
S11300A0AC0184E0220F331F441F551F8A95D1F7FA
S11300B060E472E48FE090E00E941F028FEF820FF1
S11300C089B9DA01C9010197A109B109892F9A2FC8
S11300D0AB2FBB2780BD08955D9BFECF8CB90895DF
S11300E00F931F93CF938C01C0E0F801EC0FF11D27
S11300F08081882321F00E946C00CF5FF6CFCF91DE
S11301001F910F9108951ABA87E886B980E487B9D8
S1130110089597B18F70982B97B9369A349BFECF78
S113012083E08A95F1F7000024B185B190E0982F1F
S11301308827820F911D0895CF93DF93CDB7DEB743
S11301402A970FB6F894DEBF0FBECDBF0E9483007E
S113015060EC72E180E090E00E94490017BA80E60A
S113016090E00E9470002FE986E891E021508040E1
S11301709040E1F700C0000085E690E00E94700026
S11301802FE38DE093E0215080409040E1F700C0E0
S1130190000083E790E00E9470002FE78AE196E078
S11301A0215080409040E1F700C00000C12CD12CC8
S11301B0E12CF12C8E010F5F1F4F80E00E9489001B
S11301C090934B0180934A0118BA80914A0190910F
S11301D04B01883C910594F1CD2809F064C043E0BB
S11301E0C42ED12C87E890E00E9470002FE38DE0AC
S11301F093E0215080409040E1F700C0000081EB83
S113020090E00E9470002FE58AEE90E0215080403B
S11302109040E1F700C0000083EC90E00E94700081
S11302202FE38DE093E0215080409040E1F700C03F
S1130230000021E0C21AD108A9F635C0CA94CD281D
S113024019F0C12CD12C32C033E0C32ED12C87E855
S113025090E00E9470009FE32DE083E091502040E5
S11302608040E1F700C0000081EB90E00E94700044
S11302709FE52AEE80E0915020408040E1F700C0E5
S1130280000089EE90E00E9470009FE32DE083E07F
S1130290915020408040E1F700C0000091E0C91A6D
S11302A0D108A9F6CECFCC24C394D12CB09B62C084
S11302B0B19BFECF2FEFE21AF20A4AE0B801C70160
S11302C00E944102F80101900020E9F7CF01801B50
S11302D0910B839690934D0180934C014AE060E426
S11302E071E00E94410293E0A92EB12C87E890E0CE
S11302F00E9470008FE39DE023E0815090402040F5
S1130300E1F700C000008FE091E00E94700080E4FB
S113031091E00E9470008EEA90E00E9470008FE5E8
S11303209AEE20E0815090402040E1F700C00000A8
S11303308DE191E00E947000C8010E9470008EEA75
S113034090E00E9470008FE39DE023E08150904094
S11303502040E1F700C0000081E0A81AB10831F69E
S11303609FE926E881E0915020408040E1F700C0F9
S1130370000018BAB19B21CFB09BFECF91E0E91ADF
S1130380F1084AE0B801C7010E944102F801019056
S11303900020E9F7CF01801B910B839690934D01C8
S11303A080934C014AE060E471E00E94410283E0E2
S11303B0A82EB12C87E890E00E9470002FE38DE016
S11303C093E0215080409040E1F700C000008FE0AE
S11303D091E00E94700080E491E00E9470008EEA37
S11303E090E00E9470002FE58AEE90E0215080405A
S11303F09040E1F700C000008DE191E00E947000A0
S1130400C8010E9470008EEA90E00E9470002FE301
S11304108DE093E0215080409040E1F700C000005F
S113042021E0A21AB10831F68FE996E821E0815063
S113043090402040E1F700C0000018BABECEA1E20F
S11304401A2EAA1BBB1BFD010DC0AA1FBB1FEE1F4A
S1130450FF1FA217B307E407F50720F0A21BB30B95
S1130460E40BF50B661F771F881F991F1A9469F711
S113047060957095809590959B01AC01BD01CF016D
S11304800895BB274A3031F4992322F4BDE29095B4
S113049081959F4F0C944D02BB27FB015527AA273A
S11304A0880F991FAA1FA41710F0A41B83955051FD
S11304B0B9F7A05DAA3308F0A95DA193009779F775
S11304C0B111B1931192CB010C946602DC01FC01D1
S11304D0672F71917723E1F7329704C07C916D9374
S11304E070836291AE17BF07C8F30895F894FFCFE5
S11304F041540D0A0041542B4349504D55583D3148
S11305000D0A0041542B4349505345525645523D20
S1130510312C38300D0A0041542B43495053544177
S113052052543D342C22544350222C223139322E41
S11305303136382E34332E313939222C38300D0AE5
S11305400041542B43495053454E443D342C3337DA
S11305500D0A00474554202F74657374696E672F24
S1130560777269746553656174322E7068703F7375
S1130570656174323D310D0A00474554202F74657E
S11305807374696E672F7772697465536561743229
S11305902E7068703F73656174323D300D0A0041FE
S11305A0542B43495053454E443D342C0047455445
S11305B0202F74657374696E672F7772697465444C
S11305C06F6F72322E7068703F646F6F72323D00CD
S9030000FC
