S018000073656174646F6F72746F6765746865722E7372656349
S113000012C02CC02BC02AC029C028C027C026C0BB
S113001025C024C023C022C021C020C01FC01EC0D0
S11300201DC01CC01BC011241FBECFE5D4E0DEBF21
S1130030CDBF11E0A0E6B0E0E0E0F4E002C005903E
S11300400D92AE34B107D9F721E0AEE4B1E001C0BE
S11300501D92AC35B207E1F722D0D0C1D1CF87E8E9
S113006086B980EC87B908955D9BFECF8CB908955D
S1130070CF93DF93EC018881882329F02196F4DF64
S113008089918111FCCFDF91CF9108958CE089B9DA
S11300908AB188618AB980B5866880BD0895CF9396
S11300A0DF93CDB7DEB72A970FB6F894DEBF0FBE45
S11300B0CDBFD5DFEBDF17BA80E690E0D9DF2FE7BD
S11300C08FE492E1215080409040E1F700C00000AD
S11300D085E690E0CDDF2FE782EA99E12150804068
S11300E09040E1F700C0000083E790E0C1DF2FEF0C
S11300F08EE994E2215080409040E1F700C0000076
S113010081E890E0B5DF2FEF8DE399E42150804042
S11301109040E1F700C00000A12CB12CC12CD12CDF
S1130120612C712C88248394912C8E010F5F1F4FB6
S1130130369A349BFECF84B195B190935901809344
S1130140580118BA80915801909159018B35910545
S1130150A4F5A114B10409F063C00F2EF3E0EF2E4F
S1130160F12CF02D85E990E083DF2FEF8DE399E406
S1130170215080409040E1F700C000008FEB90E0F8
S113018077DF2FE78CEF9AE0215080409040E1F731
S113019000C0000081ED90E06BDF2FEF8EE994E268
S11301A0215080409040E1F700C0000021E0E21AB5
S11301B0F108C1F6A82CB92C33C081E0A816B1040B
S11301C079F50F2EF3E0EF2EF12CF02D85E990E078
S11301D04FDF9FEF2DE389E4915020408040E1F709
S11301E000C000008FEB90E043DF9FE72CEF8AE034
S11301F0915020408040E1F700C0000087EF90E07C
S113020037DF9FEF2EE984E2915020408040E1F7F0
S113021000C0000091E0E91AF108C1F6A62CB72C41
S1130220B09B5BC0B19BFECF2FEFC21AD20A4AE04B
S1130230B801C601B0D0F80101900020E9F7CF0160
S1130240801B910B839690935B0180935A014AE043
S11302506EE471E0A0D00F2EF3E0EF2EF12CF02D20
S113026085E990E005DF8FEF9DE329E4815090401C
S11302702040E1F700C000008DE191E0F9DE8EE45A
S113028091E0F6DE8CEB90E0F3DE8FE79CEF2AE062
S1130290815090402040E1F700C000008BE291E0E3
S11302A0E7DEC801E5DE8CEB90E0E2DE8FEF9EE94D
S11302B024E2815090402040E1F700C0000081E03A
S11302C0E81AF10869F69FE72FE482E19150204093
S11302D08040E1F700C0000018BAB19B29CFB09B61
S11302E0FECF91E0C91AD1084AE0B801C60153D043
S11302F0F80101900020E9F7CF01801B910B839650
S113030090935B0180935A014AE06EE471E043D01C
S11303100F2EF3E0EF2EF12CF02D85E990E0A8DE0E
S11303202FEF8DE399E4215080409040E1F700C025
S113033000008DE191E09CDE8EE491E099DE8CEB8F
S113034090E096DE2FE78CEF9AE0215080409040B9
S1130350E1F700C000008BE291E08ADEC80188DE8C
S11303608CEB90E085DE2FEF8EE994E22150804003
S11303709040E1F700C0000021E0E21AF10869F6BC
S11303808FE79FE422E1815090402040E1F700C0D4
S1130390000018BACDCEBB274A3031F4992322F499
S11303A0BDE2909581959F4F01C0BB27FB01552766
S11303B0AA27880F991FAA1FA41710F0A41B8395BE
S11303C05051B9F7A05DAA3308F0A95DA193009735
S11303D079F7B111B1931192CB0100C0DC01FC019A
S11303E0672F71917723E1F7329704C07C916D9365
S11303F070836291AE17BF07C8F30895F894FFCFD6
S113040041540D0A0041542B43574D4F44453D334D
S11304100D0A0041542B4349504D55583D310D0AA6
S11304200041542B4349505345525645523D312CBB
S113043038300D0A0041542B43495053544152540F
S11304403D342C22544350222C223139322E313661
S1130450382E34332E313939222C38300D0A0041EC
S1130460542B43495053454E443D342C33370D0AE5
S113047000474554202F74657374696E672F777233
S113048069746553656174312E7068703F7365617A
S113049074313D310D0A00474554202F746573743F
S11304A0696E672F777269746553656174312E7054
S11304B068703F73656174313D300D0A0041542BFF
S11304C043495053454E443D342C00474554202F56
S11304D074657374696E672F7772697465446F6F9E
S11104E072312E7068703F646F6F72313D0090
S9030000FC
